:040000000C945C0000
:100004000C94ED000C9400000C9400000C9400007F
:100014000C9400000C9400000C9400000C9400005C
:100024000C9400000C9400000C9400000C9400004C
:100034000C9400000C9400000C9400000C94EE004E
:100044000C9400000C943F010C9400000C940000EC
:100054000C9400000C9400000C9400000C9400001C
:100064000C9400001027E80364000A00010000104B
:10007400000110000100000000000000000000006A
:1000840001003C00C800010001002D4E414E004912
:100094004E4600000C0003007A0001002008860090
:1000A40001003808880001003C088A000100480863
:1000B4008C000000F894EE27EFBBF1E0F5BFE5BF3C
:1000C4008DE0A2E0BB27ED938A95E9F780E098E004
:1000D400A0E0B1E0ED930197E9F7E8E9F0E085915C
:1000E4009591009761F0A591B59105901590BF0188
:1000F400F00105900D920197E1F7FB01F0CFE0E0EC
:10010400EEBBEFEFEDBFE8E0EEBFC0E0D3E00C9450
:10011400DE0133244424ECEFF0E03E164F060CF5E8
:10012400E32DF42D38D33DD3A0E0B0E080E090E49B
:10013400C5D5DF01CB01E0E0F0E06CE773E437D331
:10014400E32DF42D3ED3EA0FFB1FFF93EF933ED331
:10015400AF91BF91ED93FC93E1E0F0E03E0E4F1EB2
:10016400DACF2CC055246624E0E9F1E05E166F0670
:100174002CF5E52DF62DE059F140F595E7950BD3D7
:10018400A6E6B6E686E69FE399D50BD3DF01CB015D
:10019400E0E0F0E064E373E40AD3E52DF62D26D322
:1001A400EA0FFB1FFF93EF9311D3AF91BF91ED9330
:1001B400FC93E1E0F0E05E0E6F1ED6CFE0E0F0E0ED
:1001C400089570D4AB81AA231AF415D3C3D301C004
:1001D40012D30C94660318950A921A92FA926A93AF
:1001E4007A938A939A93AA93BA93EA93FA93EFB77A
:1001F400EA93E72DF82DEF2FFF27E7FDFFEFAE2E53
:10020400E72D9E2EACE1FCD200D3E8E0DFD3AE2E86
:10021400E0913F089E2EADE2F3D200D3E8E1BDD3D6
:10022400BE2EFCD2E0E1B9D3CE2EF8D2E8E0B5D3AD
:10023400AE2EE09124089E2EACE2F8D1AB2DF6D17F
:10024400AC2DDED2E0912808F0912908EC59FF4F3B
:10025400E0932808F0932908EAD20CF0F0D2E9914F
:10026400EFBFF991E991B991A99199918991799106
:100274006991F9901990099018956A937A93AA93C1
:10028400BA93EA93FA93EFB7EA931A93E091C6000C
:100294001E2F1A3019F4E1E0E0934408A0912A08D3
:1002A400B0912B08119779F4E12FFF276627772760
:1002B400E0932008F09321086093220870932308A8
:1002C400E0E0E09344081B3019F4E1E0E0934308D4
:1002D400A0914308A13039F4F12FE0E0DE2EEF2E97
:1002E400E2E0E0934308A0914308A23039F4E12FFF
:1002F400F0E0DE0EEF1EE0E0E09343081A3119F45B
:10030400E1E0E0934508A0914508A13031F4F12FD4
:10031400E0E09BD2E2E0E0934508A0914508A230DA
:1003240049F4E12FF0E096D2EA0FFB1F8ED2E0E011
:10033400E09345081B3119F4E1E0E0934608A091ED
:100344004608A13031F4F12FE0E089D2E2E0E093F5
:100354004608A0914608A23049F4E12FF0E084D287
:10036400EA0FFB1F7CD2E0E0E09346081F3119F44A
:10037400E1E0E0934708A0914708A13031F4F12F60
:10038400E0E077D2E2E0E0934708A0914708A2308A
:1003940049F4E12FF0E072D2EA0FFB1F6AD2E0E0E9
:1003A400E09347081991E991EFBFF991E991B99167
:1003B400A991799169911895E0E8E0936100E0E0F2
:1003C400E0936100E3E2E4B9E0E0E5B9E7B9E8B954
:1003D400E2ECEAB9E0E0EBB9E4BDE5E0E5BDE0E07C
:1003E400E6BDE7BDE8BDE1E0E0936E00E3E0E09345
:1003F4006900E1E0EDBBECBBE0E0E0936800E2E023
:10040400E093C000E8E0E093C100E6E0E093C200BE
:10041400E0E0E093C500E0E1E093C400E8E1E093AC
:10042400C100E091C100E068E093C100E3E8E0931B
:100434008000E2E0E0938100E0E0E0938500E09357
:100444008400E0938700E0938600EFEFE093890057
:10045400EAEFE0938800E0E0E0938B00E0938A0009
:10046400E0936F0078944E982D9A5F98299A51DE04
:1004740079DEDDD10CF0E3D1A0912808B0912908F0
:10048400E6E078D29ED1FFD1E0931C08F0931D08DA
:1004940060931E0870931F08E72DF82DF595E795D6
:1004A400A5D1F1D1DF01CB01E0911C08F0911D0829
:1004B40060911E0870911F08AE1BBF0B860B970B33
:1004C400F4D1DFD2E0932408F09325086093260842
:1004D40070932708EFD169D3A4E9B7E885E89CE3D2
:1004E400EDD3A0912C08B0912D0880912E08909105
:1004F4002F08DFD294D3E0932C08F0932D08609357
:100504002E0870932F08A0913008B0913108809183
:10051400320890913308CED1EA1BFB0B680B790BA0
:10052400E0933408F09335086093360870933708E5
:10053400C1D190D1C8D17F936F93FF93EF93E09192
:100544002C08F0912D0860912E0870912F088CD101
:10055400BAD1AF91BF918F919F91EA0FFB1F681F92
:10056400791F7F936F93FF93EF93E0913408F09199
:100574003508609136087091370880D1A4D1AF91C5
:10058400BF918F919F91AE0FBF1F861F971F19DEDA
:10059400DF01CB018AD151D29CD1A4D128F0EFEF55
:1005A400FFEF60E070E095D139D1AF3FEFEFBE07C8
:1005B400EFEF8E07EFEF9E0724F4A0913E08A030E2
:1005C40009F009C0E1E0E0933E085F984E9A8AD1B1
:1005D40008F491D120C022D1A230E0E0BE07E0E0CF
:1005E4008E07E0E09E0724F0A0913E08A13009F0B8
:1005F40012C0E0E0E0933E085F9A4E9873D110F485
:100604007AD109C0E0E0E0933008E0933108E09348
:100614003208E09333084ED1E0933008F093310868
:10062400609332087093330824CFFFCF1A931A2FA4
:10063400E091C000E072E1F31093C60019910895AF
:1006440031D27B816A81F981E88177FB770F67FD7D
:100654007160972F9E5781F078F0983190F4AA2713
:10066400BB27882708948795B795A7959A95D1F7BE
:10067400EA23FB23682305C0E8947727EE27FF27A6
:1006840066276F77769508F4606877F9A991B99130
:1006940089919991EA17FB076807790797FB0895F1
:1006A40001D2A881B9818A819B81CADFE883F98359
:1006B4006A837B8311F49FD007C0EEF79CD0A0E03F
:1006C400B0E080E89FE3A4D224960895EBD1249768
:1006D4001A9310E01AD1E3E8F9EF62E27EE3EED276
:1006E40019D1DEDF12D1E8D193D214D118D178D345
:1006F40009F008F407C018D1A0E0B0E080E09FE35F
:1007040018D111E002D1E0E0F0E060E87EE368D3C4
:1007140009F008F403C0F9D002D10BD1103031F044
:1007240003D1D7D1ED83FE836F837887FDD0EDD0DD
:10073400C5D2E983FA836B837C8301D1A1EBB4EC4A
:1007440086E292E4BBD2DF01CB01EDE1F5EE6DE28E
:1007540072E4B2D15DD2F8D0ACE4B3E584E091E4C4
:100764005ED2D3D0ABD27F936F93FF93EF93E7D056
:10077400A1E1BDEE8EED9FE352D2E6D0AEE5BBE73C
:1007840088EA9FE34CD2AF91BF918F919F91E4D2BD
:100794001881299608956F2F660F660B762F05D260
:1007A4000895A3ECB5EF88E490E488D20895D4D2F8
:1007B400E093F804F093F9046093FA047093FB0453
:1007C4000895A0E0B3E0EE0FFF1F0895A091F80490
:1007D400B091F9048091FA049091FB0477DFA0E0D2
:1007E400B0E080E097E46AD2A9D10895ACEFB4E018
:1007F400EE0FFF1F0895E881F9816A817B810895D6
:1008040015DFAA2D13DFA92D11CFA0913F08B091B8
:10081400400880914108909142080895A0912408CD
:10082400B091250880912608909127080895A091F9
:100834002808B0912908A130EFE3BE070895E0E04D
:10084400E0932808E09329080895E0933808F0938A
:1008540039080895A0913808B09139080895E093B3
:100864003A08F0933B080895A0913A08B0913B08E8
:100874000895E0933C08F0933D080895A0913C0846
:10088400B0913D080895AE0FBF1FED91FD91A09169
:100894002008B091210880912208909123086F2F9D
:1008A400660F660B762FA9D00895E4E6F0E060E0C9
:1008B40070E00895E0912408F091250860912608DD
:1008C4007091270808958B2F880F880B982F95D047
:1008D4000895E0933F08F0934008609341087093B3
:1008E4004208089592DFA030E0E0BE07E1E08E0701
:1008F400E0E09E07089589DFE8E068D0E09389008E
:10090400E0913F08E09388000895AD81BE818F8116
:1009140098850895ED83FE836F837887F6CFE0E0B2
:10092400F0E060E07FE30895ED81FE816F817885DA
:1009340008956ED1ED83FE836F8378870895E981EE
:10094400FA816B817C810895A981BA818B819C8114
:10095400B5D10895F09560957095E195FF4F6F4F6F
:100964007F4F0895B09580959095A195BF4F8F4F77
:100974009F4F0895EE230E2EE8E01E2EFD0161F038
:10098400011430F0EF2FF0E0E7FDFFEF011821F044
:10099400F595E7950A94E1F70895EE230E2EE8E025
:1009A4001E2EFD01BC0189F0011448F0EF2FF62F33
:1009B400672F70E067FD7FEF0118B1F70895759513
:1009C4006795F795E7950A94D1F70895EE230E2ECF
:1009D400E8E01E2EFD01BC0179F0011438F0EF2F80
:1009E400F62F672F70E00118C1F708957695679583
:1009F400F795E7950A94D1F708957A9F702D6B9F28
:100A0400700DF89F700DE99F700D6A9F602D710D38
:100A1400FB9F600D711DE89F600D711D8827FA9F73
:100A2400F02D610D781FEB9FF00D611D781FEA9F7B
:100A3400E02DF10D681F781F08953F934F935F9346
:100A440000241124A00130E2AA0FBB1F881F991FA4
:100A5400001C111C441F551F0E1A1F0A460B570B6E
:100A640028F40E0E1F1E461F571F01C0A1603A95A1
:100A740059F7FD01BC01D001CA015F914F913F912B
:100A8400089504D0DADF0EF465DF0895E89477FF63
:100A940002C060DF689497FF04C064DF00F8039429
:100AA40000FA08959A938A93BA93AA93089568943E
:100AB40001C0E89401D07AD0182E862F612D192E0A
:100AC400972F712D1B2EBF2FF12D1A2EAE2FE12D36
:100AD400089530976040704009F070580895552388
:100AE40042F4503811F4E0FF04C03196691F791FB5
:100AF4006BF050E8572711F45F93CFC05F3F31F09C
:100B0400660F000C57956795752F08955F93002025
:100B14000AF0CEC0C7C050E8192E1522880F991FBD
:100B24009527550F879550E8072E0522660F771FE6
:100B34007527550F67950895689401C0E8945F93ED
:100B4400F2DF703818F07F3F08F4A7C056E1571B56
:100B5400AAF4519558300EF4593030F0EFEFFFEF0E
:100B64006FEF7FE777F91AC077275523B9F0EE0FB7
:100B7400FF1F661F771F5A95D1F710C0772758308B
:100B840028F0EF2FF62F672F5850F9CF552331F067
:100B940076956795F795E7955A95D1F700200AF46D
:100BA400D9DE5F910895689401C0E894309760405D
:100BB4007040B1F0002426F0772312F40094CADECA
:100BC400172E7EE1112032F07A95EE0FFF1F661F7B
:100BD400111CF9CFEF2FF62F612D5F938ADF5F9100
:100BE40008954F93AF01FD01DA01AB01BC01CA01C5
:100BF400402D012C142E4F910895EA0FFB1F681FFE
:100C04000895E095F0956095EF5FFF4F6F4F08955D
:100C14005F9381DF903871F150E8152604C05F932B
:100C24007ADF903839F1703821F1572F591B2BF1A5
:100C340012F4D7DFFACF583118F0AA27BB27882738
:100C4400583028F0AB2FB82F88275850F9CF5523A8
:100C540029F08695B795A7955A95D9F7502D512522
:100C640072F0CBDF38F46795F795E795739513F435
:100C74001FC0B7DF3EDF5F910895D8F7FBCFEA1BB3
:100C8400FB0B680B51F010F40094BBDF662392F366
:100C9400EE0FFF1F661F7A95CBF7EE27FF27BF01E4
:100CA4005F910895EFEFFFEF6FE77FEF5F91089596
:100CB400EFEFFFEF6FE77FE75F9108955F932BDF1F
:100CC400703859F3903849F301240894791F23F4B8
:100CD40024F300203AF3ECCF0F921F932F933F930A
:100CE4004F93112722279927689FA0018F9F302DAA
:100CF400410D591F6B9F300D411D591F8E9F27D0E9
:100D0400BF9F25D06A9F23D0BE9F1DD0AF9F1BD00D
:100D1400AE9F110D291F391F491F591FE32FF42FAF
:100D2400652F522F4F913F912F911F910F90662362
:100D34002AF0550FEE1FFF1F661F02C073954BF27A
:100D4400CEDE5F910895100D211D391F02C0200DC4
:100D5400311D491F591F08955F93DDDE703821F45A
:100D640011200AF49FCFA4CF903809F496CF012420
:100D74000894970B1BF4D4F30020F3CF792F1F931F
:100D84002F933F934F931124112722273327A9012F
:100D940090E2AE17BF078607410730F0AE1BBF0BCA
:100DA400860B410B089401C08894551F221F331FE2
:100DB400111CAA1FBB1F881F441F9A9551F7F901E4
:100DC400612D4F913F912F911F91662332F0550F62
:100DD400EE1FFF1F661F7A954BF281DE5F91089527
:100DE40099239AF0772342F0971748F029F4AE1725
:100DF400BF07860720F031F098948894089598945A
:100E0400089408951894889408957723C2F797173F
:100E140098F3A9F7EA17FB07680788F399F3ECCF6F
:00000001FF
