:100000000C945C000C9445010C9400000C940000CE
:100010000C9400000C9400000C9400000C94000060
:100020000C9400000C9400000C9400000C94000050
:100030000C9400000C9400000C9400000C94000040
:100040000C945C010C9400000C9486020C9400004B
:100050000C9400000C9400000C9400000C94000020
:100060000C9400000C9400001027E80364000A00C0
:10007000010000100001100001000000000000005D
:100080000000030000003C00C800010001002D4EEC
:10009000414E00494E4600000C0003007A0001006A
:1000A0002A088600010040088800010044088A00F0
:1000B000010050088C000000F894EE27EFBBF1E03F
:1000C000F5BFE5BF8DE0A2E0BB27ED938A95E9F788
:1000D00080E098E0A0E0B1E0ED930197E9F7E8E96E
:1000E000F0E085919591009761F0A591B59105900B
:1000F0001590BF01F00105900D920197E1F7FB010A
:10010000F0CFE0E0EEBBEFEFEDBFE8E0EEBFC0E028
:10011000D3E00C942503E3E3E4B9E0E0E5B9E7B903
:10012000E8B9E2ECEAB9E4E0EBB90895E0E8E0937D
:100130006100E0E0E09361000895E0E0E4BDE5E007
:10014000E5BDE0E0E6BDE7BDE8BDE1E0E0936E00BF
:10015000E3E8E0938000E2E0E0938100E0E0E093F8
:100160008500E0938400E0938700E0938600EFEF42
:10017000E0938900EAEFE093880031D3E0936F00C9
:100180000895E3E0E0936900E1E0EDBBECBBE0E063
:10019000E09368000895E2E0E093C000E8E0E093B7
:1001A000C100E6E0E093C200E0E0E093C500E0E1DA
:1001B000E093C400E8E1E093C100E091C100E06891
:1001C000E093C100089533244424E0E0F1E03E16BA
:1001D0004F060CF5E32DF42D08D30DD3A0E0B0E0CD
:1001E00080E090E4A3D5DF01CB01E0E0F0E060E83F
:1001F00073E407D3E32DF42D0ED3EA0FFB1FFF9317
:10020000EF930ED3AF91BF91ED93FC93E1E0F0E05B
:100210003E0E4F1EDACF2CC055246624E0E9F1E0F3
:100220005E166F062CF5E52DF62DE059F140F5959B
:10023000E795DBD2A6E6B6E686E69FE377D5DBD286
:10024000DF01CB01E0E0F0E064E373E4DAD2E52D16
:10025000F62DF6D2EA0FFB1FFF93EF93E1D2AF9199
:10026000BF91ED93FC93E1E0F0E05E0E6F1ED6CF00
:10027000E0E0F0E0089548D4AB81AA231AF4E5D277
:100280008AD301C0E2D20C948803AA93BA93EA936A
:10029000FA93EFB7EA931C9B03C0DCD2319602C0FD
:1002A000D9D23197FE93EE93E09AE991EFBFF9919D
:1002B000E991B991A99118950A921A92FA926A93C2
:1002C0007A938A939A93AA93BA93EA93FA93EFB79D
:1002D000EA93C5D2EF2FFF27E7FDFFEF8E2EE091C7
:1002E00024087E2EACE1C0D2C4D2E8E0A1D38E2E89
:1002F000E09147087E2EADE2B7D2C4D2E8E17FD3C9
:100300009E2EC0D2E0E17BD3AE2EBCD2E8E077D304
:100310008E2EE0912E087E2EACE2ACD1A92DAAD172
:10032000AA2DA2D2ED2DFE2DEC59FF4FDE2EEF2E81
:10033000EB2DA1E0B0E03FD3FE2FE0E0ED15FE0590
:1003400010F4DD24EE24E0E0FFE3ED15FE0514F4E7
:10035000DD24EE24EB2DAD2DBE2D3ED35CD29BD201
:10036000E0932608F09327086093280870932908E3
:1003700076D2F595E79564D28ED2DF01CB01E0917C
:100380002608F09127086091280870912908AE1B73
:10039000BF0B860B970BE4E6F0E060E070E0A3D3C0
:1003A000E0932E08F0932F08609330087093310883
:1003B00084D233D4A4E9B7E885E89CE3B7D4A0910C
:1003C0003408B09135088091360890913708A3D34E
:1003D0005ED4E0933408F093350860933608709348
:1003E0003708A0913808B091390880913A08909167
:1003F0003B0863D2EA1BFB0B680B790BE0933C08CC
:10040000F0933D0860933E0870933F0856D25ED249
:1004100062D27F936F93FF93EF93E0913408F09152
:10042000350860913608709137085BD254D2AF918D
:10043000BF918F919F91EA0FFB1F681F791F7F93D8
:100440006F93FF93EF93E0913C08F0913D0860912A
:100450003E0870913F084AD23ED2AF91BF918F9132
:100460009F91AE0FBF1F861F971F05DFDF01CB01D6
:10047000EAE0F0E060E070E012D33DD245D228F02F
:10048000EFEFFFEF60E070E036D2A0913108AA23D1
:100490006AF4E0914608E03029F4E1E0E093460890
:1004A0005F984E9A31D208F438D219C0EBD143D3B9
:1004B000B4F4A0914608A13029F4E0E0E0934608A6
:1004C0005F9A4E9821D210F428D209C088D1E093C7
:1004D0003808E0933908E0933A08E0933B08EDD1FF
:1004E000E0933808F093390860933A0870933B081A
:1004F000E991EFBFF991E991B991A9919991899108
:1005000079916991F9901990099018956A937A9365
:10051000AA93BA93EA93FA93EFB7EA931A93E09106
:10052000C6001E2F1A3019F4E1E0E0934C08A091A8
:100530003208B0913308119779F4E12FFF2766272D
:100540007727E0932A08F0932B0860932C08709388
:100550002D08E0E0E0934C081B3019F4E1E0E09353
:100560004B08A0914B08A13039F4F12FE0E0BE2EEA
:10057000CF2EE2E0E0934B08A0914B08A23039F473
:10058000E12FF0E0BE0ECF1EE0E0E0934B081A3101
:1005900019F4E1E0E0934D08A0914D08A13031F449
:1005A000F12FE0E0C4D1E2E0E0934D08A0914D08C6
:1005B000A23049F4E12FF0E089D1EA0FFB1FB7D157
:1005C000E0E0E0934D081B3119F4E1E0E0934E08C0
:1005D000A0914E08A13031F4F12FE0E0ADD1E2E07E
:1005E000E0934E08A0914E08A23049F4E12FF0E0CC
:1005F00078D1EA0FFB1FA0D1E0E0E0934E081F3155
:1006000019F4E1E0E0934F08A0914F08A13031F4D4
:10061000F12FE0E096D1E2E0E0934F08A0914F087F
:10062000A23049F4E12FF0E061D1EA0FFB1F89D13C
:10063000E0E0E0934F081991E991EFBFF991E9915A
:10064000B991A99179916991189570DD64DD75DD95
:1006500098DDA1DD78944E982D985F98299AB3DDA6
:10066000DBDD5F9A4E98E4EFE0938B00E0938A0025
:10067000FFCFFFCF1A931A2FE091C000E072E1F391
:100680001093C600199108953FD27B816A81F98148
:10069000E88177FB770F67FD7160972F9E5781F098
:1006A00078F0983190F4AA27BB278827089487957B
:1006B000B795A7959A95D1F7EA23FB23682305C040
:1006C000E8947727EE27FF2766276F77769508F45B
:1006D000606877F9A991B99189919991EA17FB0717
:1006E0006807790797FB08950FD2A881B9818A819D
:1006F0009B81CADFE883F9836A837B8311F4A5D0E9
:1007000007C0EEF7A2D0A0E0B0E080E89FE3B8D247
:1007100024960895F9D124971A9310E017D1E3E8AD
:10072000F9EF62E27EE302D316D1DEDF0FD1F6D11C
:10073000A7D211D115D18CD309F008F407C015D177
:10074000A0E0B0E080E09FE315D111E0FFD0E0E051
:10075000F0E060E87EE37CD309F008F403C0F6D053
:10076000FFD008D1103031F000D1EBD1ED83FE8302
:100770006F837887FAD0EAD0D9D2E983FA836B8382
:100780007C83FED0A1EBB4EC86E292E4CFD2DF0111
:10079000CB01EDE1F5EE6DE272E4C0D171D2F5D09E
:1007A000ACE4B3E584E091E472D2D0D0BFD27F93C1
:1007B0006F93FF93EF93E4D0A1E1BDEE8EED9FE345
:1007C00066D2E3D0AEE5BBE788EA9FE360D2AF91A3
:1007D000BF918F919F91F8D2188129960895E0E0FA
:1007E000E0938B00E0938A0008956F2F660F660BED
:1007F000762F13D20895A3ECB5EF88E490E496D257
:100800000895E2D2E0930005F0930105609302059C
:10081000709303050895A0E0B3E0EE0FFF1F089565
:10082000A0910005B091010580910205909103050A
:1008300071DFA0E0B0E080E097E478D2B7D108950E
:10084000A4E0B5E0EE0FFF1F0895E881F9816A8109
:100850007B810895A4E2B8E0ED91FD910895E091C7
:100860002408F0912508089505DFA82D03DFA72DA2
:1008700001CFA0914708B091480880914908909114
:100880004A080895A0912E08B0912F088091300851
:10089000909131080895AE0FBF1FED91FD91A09189
:1008A0002A08B0912B0880912C0890912D086F2F69
:1008B000660F660B762FD3D00895E0912E08F09145
:1008C0002F0860913008709131080895A091400878
:1008D000B091410808958B2F880F880B982FBFD0B7
:1008E0000895A0914208B09143080895A09144084A
:1008F000B09145080895E0934708F0934808609345
:10090000490870934A080895B4DFA030E0E0BE07BC
:10091000E1E08E07E0E09E070895ABDFE8E088D0D5
:10092000E0938900E0914708E09388000895E09300
:100930004008F09341080895E0934208F09343087B
:100940000895E0934408F09345080895AD81BE8171
:100950008F8198850895ED83FE836F837887F6CF26
:10096000E0E0F0E060E07FE30895ED81FE816F81DB
:100970007885089585D1ED83FE836F837887089508
:10098000E981FA816B817C810895A981BA818B818B
:100990009C81CCD10895F09560957095E195FF4FBD
:1009A0006F4F7F4F0895B09580959095A195BF4F5B
:1009B0008F4F9F4F0895EE230E2EE8E01E2EFD016F
:1009C00051F0011420F0FE2FE0E0011821F0EE0FAD
:1009D000FF1F0A94E1F70895EE230E2EE8E01E2E85
:1009E000FD0161F0011430F0EF2FF0E0E7FDFFEFC3
:1009F000011821F0F595E7950A94E1F70895EE23A3
:100A00000E2EE8E01E2EFD01BC0189F0011448F015
:100A1000EF2FF62F672F70E067FD7FEF0118B1F71A
:100A2000089575956795F795E7950A94D1F7089518
:100A3000EE230E2EE8E01E2EFD01BC0179F001141C
:100A400038F0EF2FF62F672F70E00118C1F70895E7
:100A500076956795F795E7950A94D1F708957A9F6B
:100A6000702D6B9F700DF89F700DE99F700D6A9F40
:100A7000602D710DFB9F600D711DE89F600D711D54
:100A80008827FA9FF02D610D781FEB9FF00D611DF7
:100A9000781FEA9FE02DF10D681F781F08953F939E
:100AA0004F935F9300241124A00130E2AA0FBB1FD3
:100AB000881F991F001C111C441F551F0E1A1F0A66
:100AC000460B570B28F40E0E1F1E461F571F01C062
:100AD000A1603A9559F7FD01BC01D001CA015F91AF
:100AE0004F913F91089504D0DADF0EF454DF08955A
:100AF000E89477FF02C04FDF689497FF04C053DF8C
:100B000000F8039400FA08959A938A93BA93AA93EB
:100B10000895689401C0E89401D080D0182E862FE3
:100B2000612D192E972F712D1B2EBF2FF12D1A2EEF
:100B3000AE2FE12D089500240A160B0608060906BB
:100B4000089530976040704009F07058089555231B
:100B500042F4503811F4E0FF04C03196691F791F48
:100B60006BF050E8572711F45F93CFC05F3F31F02F
:100B7000660F000C57956795752F08955F930020B9
:100B80000AF0CEC0C7C050E8192E1522880F991F51
:100B90009527550F879550E8072E0522660F771F7A
:100BA0007527550F67950895689401C0E8945F9381
:100BB000F2DF703818F07F3F08F4A7C056E1571BEA
:100BC000AAF4519558300EF4593030F0EFEFFFEFA2
:100BD0006FEF7FE777F91AC077275523B9F0EE0F4B
:100BE000FF1F661F771F5A95D1F710C0772758301F
:100BF00028F0EF2FF62F672F5850F9CF552331F0FB
:100C000076956795F795E7955A95D1F700200AF400
:100C1000C2DE5F910895689401C0E8943097604007
:100C20007040B1F0002426F0772312F40094B3DE74
:100C3000172E7EE1112032F07A95EE0FFF1F661F0E
:100C4000111CF9CFEF2FF62F612D5F938ADF5F9193
:100C500008954F93AF01FD01DA01AB01BC01CA0158
:100C6000402D012C142E4F910895EA0FFB1F681F91
:100C70000895E095F0956095EF5FFF4F6F4F0895F1
:100C80005F9381DF903871F150E8152604C05F93BF
:100C90007ADF903839F1703821F1572F591B2BF139
:100CA00012F4D7DFFACF583118F0AA27BB278827CC
:100CB000583028F0AB2FB82F88275850F9CF55233C
:100CC00029F08695B795A7955A95D9F7502D5125B6
:100CD00072F0CBDF38F46795F795E795739513F4C9
:100CE0001FC0B7DF3EDF5F910895D8F7FBCFEA1B47
:100CF000FB0B680B51F010F40094BBDF662392F3FA
:100D0000EE0FFF1F661F7A95CBF7EE27FF27BF0177
:100D10005F910895EFEFFFEF6FE77FEF5F91089529
:100D2000EFEFFFEF6FE77FE75F9108955F932BDFB2
:100D3000703859F3903849F301240894791F23F44B
:100D400024F300203AF3ECCF0F921F932F933F939D
:100D50004F93112722279927689FA0018F9F302D3D
:100D6000410D591F6B9F300D411D591F8E9F27D07C
:100D7000BF9F25D06A9F23D0BE9F1DD0AF9F1BD0A1
:100D8000AE9F110D291F391F491F591FE32FF42F43
:100D9000652F522F4F913F912F911F910F906623F6
:100DA0002AF0550FEE1FFF1F661F02C073954BF20E
:100DB000CEDE5F910895100D211D391F02C0200D58
:100DC000311D491F591F08955F93DDDE703821F4EE
:100DD00011200AF49FCFA4CF903809F496CF0124B4
:100DE0000894970B1BF4D4F30020F3CF792F1F93B3
:100DF0002F933F934F931124112722273327A901C3
:100E000090E2AE17BF078607410730F0AE1BBF0B5D
:100E1000860B410B089401C08894551F221F331F75
:100E2000111CAA1FBB1F881F441F9A9551F7F90177
:100E3000612D4F913F912F911F91662332F0550FF5
:100E4000EE1FFF1F661F7A954BF281DE5F910895BA
:100E500099239AF0772342F0971748F029F4AE17B8
:100E6000BF07860720F031F09894889408959894ED
:100E7000089408951894889408957723C2F79717D3
:100E800098F3A9F7EA17FB07680788F399F3ECCF03
:00000001FF
