:080000000C945C000C94ED006F
:100008000C9400000C9400000C9400000C94000068
:100018000C9400000C9400000C9400000C94000058
:100028000C9400000C9400000C9400000C94000048
:100038000C9400000C9400000C9405010C94000032
:100048000C942B020C9400000C9400000C940000FB
:100058000C9400000C9400000C9400000C94000018
:100068001027E80364000A000100001000011000D6
:1000780001000000000000000000000001003C003A
:10008800C800010001002D4E414E00494E460000B7
:100098000C0003007A0001002808860001004008CF
:1000A8008800010044088A00010050088C00000004
:1000B800F894EE27EFBBF1E0F5BFE5BF8DE0A2E0D5
:1000C800BB27ED938A95E9F780E098E0A0E0B1E0DE
:1000D800ED930197E9F7E8E9F0E0859195910097AC
:1000E80061F0A591B59105901590BF01F0010590BB
:1000F8000D920197E1F7FB01F0CFE0E0EEBBEFEFE7
:10010800EDBFE8E0EEBFC0E0D3E00C94CA023324B0
:100118004424E0E0F1E03E164F060CF5E32DF42D03
:1001280045D34AD3A0E0B0E080E090E4CFD5DF012A
:10013800CB01E0E0F0E060E873E444D3E32DF42D74
:100148004BD3EA0FFB1FFF93EF934BD3AF91BF91B4
:10015800ED93FC93E1E0F0E03E0E4F1EDACF2CC0A9
:1001680055246624E0E9F1E05E166F062CF5E52DCE
:10017800F62DE059F140F595E79518D3A6E6B6E6D1
:1001880086E69FE3A3D518D3DF01CB01E0E0F0E0DA
:1001980064E373E417D3E52DF62D33D3EA0FFB1F81
:1001A800FF93EF931ED3AF91BF91ED93FC93E1E0E2
:1001B800F0E05E0E6F1ED6CFE0E0F0E0089574D454
:1001C800AB81AA231AF422D3D3D301C01FD30C9432
:1001D8007303EA93FA93EFB7EA931C9B07C0E72DE2
:1001E800F82D31967E2E8F2E319706C0E72DF82DEB
:1001F80031977E2E8F2E3196E991EFBFF991E991D3
:1002080018950A921A92FA926A937A938A939A9311
:10021800AA93BA93EA93FA93EFB7EA93E72DF82DE6
:10022800EF2FFF27E7FDFFEFAE2EE72D9E2EACE167
:10023800F2D2F6D2E8E0C5D3AE2EE09147089E2E62
:10024800ADE2E9D2F6D2E8E1A3D3BE2EF2D2E0E1E4
:100258009FD3CE2EEED2E8E09BD3AE2EE0912C08B1
:100268009E2EACE2EED1AB2DECD1AC2DD4D2EAD29D
:10027800EC59FF4FE0933008F0933108E8D2A130F1
:10028800E8E0BE070CF0E8D2E2D2A130EFE3BE0707
:100298000CF0E2D2D7D2ACD39FD2E4D2E0932408B8
:1002A800F0932508609326087093270877248824FC
:1002B800E72DF82DF595E795A4D2D4D2DF01CB012F
:1002C800E0912408F091250860912608709127088C
:1002D800AE1BBF0B860B970BE4E6F0E060E070E026
:1002E800D2D3E0932C08F0932D0860932E087093D6
:1002F8002F08CAD262D4A4E9B7E885E89CE3E6D41B
:10030800A0913408B091350880913608909137084B
:10031800D2D38DD4E0933408F0933508609336082F
:1003280070933708A0913808B091390880913A083D
:1003380090913B08A9D2EA1BFB0B680B790BE09361
:100348003C08F0933D0860933E0870933F089CD2A8
:10035800A4D2A8D27F936F93FF93EF93E0913408D0
:10036800F09135086091360870913708A1D29AD279
:10037800AF91BF918F919F91EA0FFB1F681F791F63
:100388007F936F93FF93EF93E0913C08F0913D08C2
:1003980060913E0870913F0890D284D2AF91BF918E
:1003A8008F919F91AE0FBF1F861F971F08DFDF0138
:1003B800CB01EAE0F0E060E070E041D383D28BD279
:1003C80028F0EFEFFFEF60E070E07CD2A0912F08FB
:1003D800AA236AF4E0914608E03029F4E1E0E093CA
:1003E80046085F984E9A77D208F47ED219C021D277
:1003F80072D3B4F4A0914608A13029F4E0E0E09368
:1004080046085F9A4E9867D210F46ED209C076D229
:10041800E0933808E0933908E0933A08E0933B0802
:1004280033D2E0933808F093390860933A08709310
:100438003B08E991EFBFF991E991B991A991999197
:10044800899179916991F9901990099018956A9311
:100458007A93AA93BA93EA93FA93EFB7EA931A9323
:10046800E091C6001E2F1A3019F4E1E0E0934C0821
:10047800A0913208B0913308119779F4E12FFF2742
:1004880066277727E0932808F093290860932A08BD
:1004980070932B08E0E0E0934C081B3019F4E1E07E
:1004A800E0934B08A0914B08A13039F4F12FE0E01C
:1004B800DE2EEF2EE2E0E0934B08A0914B08A2302D
:1004C80039F4E12FF0E0DE0EEF1EE0E0E0934B0898
:1004D8001A3119F4E1E0E0934D08A0914D08A130DC
:1004E80031F4F12FE0E010D2E2E0E0934D08A09162
:1004F8004D08A23049F4E12FF0E0CFD1EA0FFB1FFD
:1005080003D2E0E0E0934D081B3119F4E1E0E093F9
:100518004E08A0914E08A13031F4F12FE0E0F9D156
:10052800E2E0E0934E08A0914E08A23049F4E12F92
:10053800F0E0BED1EA0FFB1FECD1E0E0E0934E08FB
:100548001F3119F4E1E0E0934F08A0914F08A13062
:1005580031F4F12FE0E0E2D1E2E0E0934F08A0911E
:100568004F08A23049F4E12FF0E0A7D1EA0FFB1FB2
:10057800D5D1E0E0E0934F081991E991EFBFF991E7
:10058800E991B991A991799169911895E0E8E09379
:100598006100E0E0E0936100E3E2E4B9E0E0E5B99E
:1005A800E7B9E8B9E2ECEAB9E0E0EBB9E4BDE5E0C7
:1005B800E5BDE0E0E6BDE7BDE8BDE1E0E0936E0043
:1005C800E3E0E0936900E1E0EDBBECBBE0E0E09341
:1005D8006800E2E0E093C000E8E0E093C100E6E0F4
:1005E800E093C200E0E0E093C500E0E1E093C400DE
:1005F800E8E1E093C100E091C100E068E093C10048
:10060800E3E8E0938000E2E0E0938100E0E0E0933B
:100618008500E0938400E0938700E0938600EFEF85
:10062800E0938900EAEFE093880068D1E0936F00D7
:1006380078944E982D9A5F98299A69DD91DDFFCFBD
:10064800FFCF1A931A2FE091C000E072E1F31093E4
:10065800C6001991089528D27B816A81F981E881C1
:1006680077FB770F67FD7160972F9E5781F078F0C1
:10067800983190F4AA27BB27882708948795B795BF
:10068800A7959A95D1F7EA23FB23682305C0E89438
:100698007727EE27FF2766276F77769508F4606837
:1006A80077F9A991B99189919991EA17FB07680798
:1006B800790797FB0895F8D1A881B9818A819B8130
:1006C800CADFE883F9836A837B8311F49FD007C06C
:1006D800EEF79CD0A0E0B0E080E89FE3A1D224969A
:1006E8000895E2D124971A9310E01DD1E3E8F9EFB9
:1006F80062E27EE3EBD21CD1DEDF15D1DFD190D2EE
:1007080017D11BD175D309F008F407C01BD1A0E09D
:10071800B0E080E09FE31BD111E005D1E0E0F0E01C
:1007280060E87EE365D309F008F403C0FCD005D186
:100738000ED1103031F006D1D4D1ED83FE836F8312
:10074800788700D1F0D0C2D2E983FA836B837C83A7
:1007580004D1A1EBB4EC86E292E4B8D2DF01CB017C
:10076800EDE1F5EE6DE272E4A9D15AD2FBD0ACE42A
:10077800B3E584E091E45BD2D6D0A8D27F936F939F
:10078800FF93EF93EAD0A1E1BDEE8EED9FE34FD248
:10079800E9D0AEE5BBE788EA9FE349D2AF91BF91C4
:1007A8008F919F91E1D21881299608956F2F660F36
:1007B800660B762F02D20895A3ECB5EF88E490E497
:1007C80085D20895D1D2E0930005F0930105609396
:1007D8000205709303050895A0E0B3E0EE0FFF1F34
:1007E8000895A0910005B0910105809102059091AE
:1007F800030577DFA0E0B0E080E097E467D2A6D1F8
:100808000895A4E0B5E0EE0FFF1F0895E881F9818F
:100818006A817B81089515DFAA2D13DFA92D11CFD9
:10082800A0914708B09148088091490890914A08DA
:100838000895A0912C08B0912D0880912E089091D0
:100848002F080895E0913008F09131080895A0919B
:100858003008B09131080895E0E0E0933008E09363
:1008680031080895AE0FBF1FED91FD91A0912808A2
:10087800B091290880912A0890912B086F2F660F54
:10088800660B762FBCD00895E0912C08F0912D08C6
:1008980060912E0870912F080895A0914008B0919A
:1008A800410808958B2F880F880B982FA8D008959A
:1008B800A0914208B09143080895A0914408B091CE
:1008C80045080895E0934708F0934808609349085D
:1008D80070934A080895A4DFA030E0E0BE07E1E085
:1008E8008E07E0E09E0708959BDFE8E06AD0E0937A
:1008F8008900E0914708E09388000895E0E0E093DC
:100908008B00E0938A000895E0934008F093410833
:100918000895E0934208F09343080895E09344084B
:10092800F09345080895AD81BE818F81988508951B
:10093800ED83FE836F837887F6CFE0E0F0E060E038
:100948007FE30895ED81FE816F817885089568D1F0
:10095800ED83FE836F8378870895E981FA816B813F
:100968007C810895A981BA818B819C81AFD108953A
:10097800F09560957095E195FF4F6F4F7F4F089503
:10098800B09580959095A195BF4F8F4F9F4F089533
:10099800EE230E2EE8E01E2EFD01BC0189F00114A5
:1009A80048F0EF2FF62F672F70E067FD7FEF0118F3
:1009B800B1F7089575956795F795E7950A94D1F776
:1009C8000895EE230E2EE8E01E2EFD01BC0179F0FD
:1009D800011438F0EF2FF62F672F70E00118C1F7D8
:1009E800089576956795F795E7950A94D1F7089550
:1009F800F595E795F595E795F595E79508957A9F27
:100A0800702D6B9F700DF89F700DE99F700D6A9F98
:100A1800602D710DFB9F600D711DE89F600D711DAC
:100A28008827FA9FF02D610D781FEB9FF00D611D4F
:100A3800781FEA9FE02DF10D681F781F08953F93F6
:100A48004F935F9300241124A00130E2AA0FBB1F2B
:100A5800881F991F001C111C441F551F0E1A1F0ABE
:100A6800460B570B28F40E0E1F1E461F571F01C0BA
:100A7800A1603A9559F7FD01BC01D001CA015F9107
:100A88004F913F91089504D0DADF0EF471DF089595
:100A9800E89477FF02C06CDF689497FF04C070DFAA
:100AA80000F8039400FA08959A938A93BA93AA9344
:100AB8000895689401C0E89401D080D0182E862F3C
:100AC800612D192E972F712D1B2EBF2FF12D1A2E48
:100AD800AE2FE12D089500240A160B060806090614
:100AE800089530976040704009F070580895552374
:100AF80042F4503811F4E0FF04C03196691F791FA1
:100B08006BF050E8572711F45F93CFC05F3F31F087
:100B1800660F000C57956795752F08955F93002011
:100B28000AF0CEC0C7C050E8192E1522880F991FA9
:100B38009527550F879550E8072E0522660F771FD2
:100B48007527550F67950895689401C0E8945F93D9
:100B5800F2DF703818F07F3F08F4A7C056E1571B42
:100B6800AAF4519558300EF4593030F0EFEFFFEFFA
:100B78006FEF7FE777F91AC077275523B9F0EE0FA3
:100B8800FF1F661F771F5A95D1F710C07727583077
:100B980028F0EF2FF62F672F5850F9CF552331F053
:100BA80076956795F795E7955A95D1F700200AF459
:100BB800DFDE5F910895689401C0E8943097604043
:100BC8007040B1F0002426F0772312F40094D0DEB0
:100BD800172E7EE1112032F07A95EE0FFF1F661F67
:100BE800111CF9CFEF2FF62F612D5F938ADF5F91EC
:100BF80008954F93AF01FD01DA01AB01BC01CA01B1
:100C0800402D012C142E4F910895EA0FFB1F681FE9
:100C18000895E095F0956095EF5FFF4F6F4F089549
:100C28005F9381DF903871F150E8152604C05F9317
:100C38007ADF903839F1703821F1572F591B2BF191
:100C480012F4D7DFFACF583118F0AA27BB27882724
:100C5800583028F0AB2FB82F88275850F9CF552394
:100C680029F08695B795A7955A95D9F7502D51250E
:100C780072F0CBDF38F46795F795E795739513F421
:100C88001FC0B7DF3EDF5F910895D8F7FBCFEA1B9F
:100C9800FB0B680B51F010F40094BBDF662392F352
:100CA800EE0FFF1F661F7A95CBF7EE27FF27BF01D0
:100CB8005F910895EFEFFFEF6FE77FEF5F91089582
:100CC800EFEFFFEF6FE77FE75F9108955F932BDF0B
:100CD800703859F3903849F301240894791F23F4A4
:100CE80024F300203AF3ECCF0F921F932F933F93F6
:100CF8004F93112722279927689FA0018F9F302D96
:100D0800410D591F6B9F300D411D591F8E9F27D0D4
:100D1800BF9F25D06A9F23D0BE9F1DD0AF9F1BD0F9
:100D2800AE9F110D291F391F491F591FE32FF42F9B
:100D3800652F522F4F913F912F911F910F9066234E
:100D48002AF0550FEE1FFF1F661F02C073954BF266
:100D5800CEDE5F910895100D211D391F02C0200DB0
:100D6800311D491F591F08955F93DDDE703821F446
:100D780011200AF49FCFA4CF903809F496CF01240C
:100D88000894970B1BF4D4F30020F3CF792F1F930B
:100D98002F933F934F931124112722273327A9011B
:100DA80090E2AE17BF078607410730F0AE1BBF0BB6
:100DB800860B410B089401C08894551F221F331FCE
:100DC800111CAA1FBB1F881F441F9A9551F7F901D0
:100DD800612D4F913F912F911F91662332F0550F4E
:100DE800EE1FFF1F661F7A954BF281DE5F91089513
:100DF80099239AF0772342F0971748F029F4AE1711
:100E0800BF07860720F031F0989488940895989445
:100E1800089408951894889408957723C2F797172B
:100E280098F3A9F7EA17FB07680788F399F3ECCF5B
:00000001FF
