:060000000C9486000C9434
:1000060017010C9400000C9400000C9400000C9452
:1000160000000C9400000C9400000C9400000C945A
:1000260000000C9400000C9400000C9400000C944A
:1000360000000C9400000C9400000C9418010C9421
:1000460000000C9400000C9400000C9400000C942A
:1000560000000C9400000C9400000C9400000C941A
:1000660000001027E80364000A00010000100001E8
:100076001000010000000000000000000000010068
:100086003C00C80014003200000054005B000E0063
:10009600B4FFA0FFE4FF420063002900CAFFACFFE3
:1000A600CAFF2A0063004100E6FFA0FFACFFFFFF86
:1000B6005B005400E6FFBFFF9DFFD6FF36005400ED
:1000C6003600D7FF9DFFBEFF1C0060004C00F2FF0C
:1000D600A5FFACFF01002D4E414E00494E460000E3
:1000E6000C0003007A000100200886000100360893
:1000F6008800010038088A0001003A088C000100D7
:100106004308DA000000F894EE27EFBBF1E0F5BFF4
:10011600E5BF8DE0A2E0BB27ED938A95E9F780E085
:1001260098E0A0E0B1E0ED930197E9F7E6EEF0E0A4
:1001360085919591009761F0A591B59105901590DF
:10014600BF01F00105900D920197E1F7FB01F0CF99
:10015600E0E0EEBBEFEFEDBFE8E0EEBFC0E0D3E0DE
:100166000C94680133244424ECEFF0E03E164F066D
:100176000CF5E32DF42DB4D2B9D2A0E0B0E080E0C6
:1001860090E4FCD4DF01CB01E0E0F0E06CE773E43F
:10019600B3D2E32DF42DBAD2EA0FFB1FFF93EF93F0
:1001A600BAD2AF91BF91ED93FC93E1E0F0E03E0E41
:1001B6004F1EDACF2CC055246624E0E9F1E05E1626
:1001C6006F062CF5E52DF62DE059F140F595E795EE
:1001D60087D2A6E6B6E686E69FE3D0D487D2DF01CD
:1001E600CB01E0E0F0E064E373E486D2E52DF62D82
:1001F600A2D2EA0FFB1FFF93EF938DD2AF91BF916F
:10020600ED93FC93E1E0F0E05E0E6F1ED6CFE0E0EA
:10021600F0E00895A7D3AB81AA231AF491D2B9D3FB
:1002260001C08ED20C940C0318950A921A92FA9277
:100236006A937A938A939A93AA93BA93EA93FA93D0
:10024600EFB7EA93E72DF82DEF2FFF27E7FDFFEF36
:10025600AE2EE72D9E2EACE178D2E0914208AE2E6E
:10026600E09141089E2EADE270D274D2E8E10CD343
:10027600BE2E70D2E0E108D3CE2E6CD2E8E004D3D5
:10028600AE2EE09124089E2EACE275D1AB2D73D133
:10029600AC2D5BD2E0912808F0912908EC59FF4F6C
:1002A600E0932808F09329085ED20CF064D2E99115
:1002B600EFBFF991E991B991A991999189917991B4
:1002C6006991F990199009901895E0E8E09361001A
:1002D600E0E0E0936100E3E2E4B9E0E0E5B9E7B924
:1002E600E8B9E2ECEAB9E0E0EBB9E4BDE5E0E5BD8A
:1002F600E0E0E6BDE7BDE8BDE1E0E0936E00E3E0E7
:10030600E0936900E1E0EDBBECBBE0E0E093680060
:10031600E093C000E8E0E093C100E6E0E093C200AD
:10032600E0E0E093C500E9E1E093C400E3E8E09390
:100336008000E2E0E0938100E0E0E0938500E09356
:100346008400E0938700E0938600EFEFE093890056
:10035600EAEFE0938800E0E0E0938B00E0938A0008
:10036600E0936F0078944E982D9A5F98299AFADE5A
:1003760022DFF9D10CF0FFD1A0912808B09129080D
:10038600E6E06FD2C3D1FDD1E0931C08F0931D08BF
:1003960060931E0870931F08E72DF82DF595E795D5
:1003A600CAD1EFD1DF01CB01E0911C08F0911D0805
:1003B60060911E0870911F08AE1BBF0B860B970B32
:1003C600E4E6F0E060E070E0BCD2E0932408F0934D
:1003D60025086093260870932708E5D146D3A4E93B
:1003E600B7E885E89CE3CAD3A0912A08B0912B0808
:1003F60080912C0890912D0872D3E0932A08F093EF
:100406002B0860932C0870932D08E0912E08F0912C
:100416002F0860913008709131089CD1AAD2ACD2D5
:1004260057D3E0933208F0933308609334087093FF
:100436003508B9D1A0913608B09137088B2F880FAF
:10044600880B982F3AD27F936F93FF93EF93E091A7
:100456002A08F0912B0860912C0870912D08A09124
:100466003808B0913908A8D1AF91BF918F919F916B
:1004760080D235D37F936F93FF93EF93E091320849
:10048600F09133086091340870913508A0913A08CC
:10049600B0913B0891D1AF91BF918F919F911FD39E
:1004A600DF01CB01B7DEA8D266277727ADE3B8E038
:1004B60066277727DAD287D1E0913D08F0913E088A
:1004C60060913F0870914008A1E4B8E095D2ED93A1
:1004D600FC937ED109F008F40CC0E0E0FFEF6FE773
:1004E60077E4E0933D08F0933E0860933F087093ED
:1004F600400830D1AF3FEFEFBE07EFEF8E07EFEFCB
:100506009E0724F4A0913C08A03009F00BC0E1E05E
:10051600E0933C085F984E9A5BD111F008F001C059
:1005260065D122C017D1A230E0E0BE07E0E08E0719
:10053600E0E09E0724F0A0913C08A13009F014C029
:10054600E0E0E0933C085F9A4E9842D111F008F043
:1005560002C04CD109C0E0E0E0932E08E0932F08DA
:10056600E0933008E09331081ED1AEE2B8E07DD2C8
:100576002AD1FFCEFFCF1A931A2FE091C000E07266
:10058600E1F31093C60019910895ECD17B816A813D
:10059600F981E88177FB770F67FD7160972F9E578A
:1005A60081F078F0983190F4AA27BB278827089421
:1005B6008795B795A7959A95D1F7EA23FB236823E4
:1005C60005C0E8947727EE27FF2766276F7776958D
:1005D60008F4606877F9A991B99189919991EA1718
:1005E600FB076807790797FB0895BCD1A881B981F5
:1005F6008A819B81CADFE883F9836A837B8311F44E
:100606009FD007C0EEF79CD0A0E0B0E080E89FE363
:100616005FD224960895A6D124971A9310E0ECD0C1
:10062600E3E8F9EF62E27EE3A9D2EBD0DEDFE4D0C5
:10063600A3D14ED2E6D0EAD033D309F008F407C0EE
:10064600EAD0A0E0B0E080E09FE3EAD011E0D4D0A9
:10065600E0E0F0E060E87EE323D309F008F403C0AD
:10066600CBD0D4D0DDD0103031F0D5D092D1ED83BF
:10067600FE836F837887CFD0BFD080D2E983FA8399
:100686006B837C83D3D0A1EBB4EC86E292E476D282
:10069600DF01CB01EDE1F5EE6DE272E46DD118D22A
:1006A600CAD0ACE4B3E584E091E419D2A5D066D211
:1006B6007F936F93FF93EF93B9D0A1E1BDEE8EEDDB
:1006C6009FE30DD2B8D0AEE5BBE788EA9FE307D239
:1006D600AF91BF918F919F919FD2188129960895CE
:1006E6006F2F660F660B762FC0D10895A3ECB5EF7A
:1006F60088E490E443D208958FD2E093F804F0930F
:10070600F9046093FA047093FB040895A0E0B3E043
:10071600EE0FFF1F0895A091F804B091F90480919F
:10072600FA049091FB0477DFA0E0B0E080E097E464
:1007360025D264D10895ACEFB4E0EE0FFF1F089503
:10074600E881F9816A817B81089515DFAA2D13DF7F
:10075600A92D11CFA0912408B091250880912608D3
:10076600909127080895A0912808B0912908A130F2
:10077600EFE3BE070895E0E0E0932808E093290838
:100786000895AE0FBF1FED91FD91A0912008B09185
:10079600210880912208909123086F2F660F660B1F
:1007A600762F8BD00895E0912408F091250860916A
:1007B60026087091270808958B2F880F880B982F8D
:1007C600D8D0DCD10895ED93FD936D937C93089575
:1007D600A0913D08B0913E0880913F089091400855
:1007E600E0E0FFEF6FE777E45BD20895EFEFE09389
:1007F6008900E09388000895AD81BE818F81988538
:100806000895ED83FE836F837887F6CFE0E0F0E00E
:1008160060E07FE30895ED81FE816F81788508951C
:1008260057D1ED83FE836F8378870895E981FA8136
:100836006B817C810895A981BA818B819C819ED12F
:100846000895F09560957095E195FF4F6F4F7F4F36
:100856000895B09580959095A195BF4F8F4F9F4F66
:100866000895EE230E2EE8E01E2EFD0161F0011420
:1008760030F0EF2FF0E0E7FDFFEF011821F0F595DE
:10088600E7950A94E1F70895EE230E2EE8E01E2E72
:10089600FD01BC0189F0011448F0EF2FF62F672FF8
:1008A60070E067FD7FEF0118B1F7089575956795BC
:1008B600F795E7950A94D1F708957A9F702D6B9F67
:1008C600700DF89F700DE99F700D6A9F602D710D78
:1008D600FB9F600D711DE89F600D711D8827FA9FB3
:1008E600F02D610D781FEB9FF00D611D781FEA9FBB
:1008F600E02DF10D681F781F08953F934F935F9386
:1009060000241124A00130E2AA0FBB1F881F991FE3
:10091600001C111C441F551F0E1A1F0A460B570BAD
:1009260028F40E0E1F1E461F571F01C0A1603A95E0
:1009360059F7FD01BC01D001CA015F914F913F916A
:10094600089504D0DADF0EF47CDF0895E89477FF8B
:1009560002C077DF689497FF04C07BDF00F803943A
:1009660000FA08959A938A93BA93AA93089568947D
:1009760001C0E89401D07AD0182E862F612D192E49
:10098600972F712D1B2EBF2FF12D1A2EAE2FE12D75
:10099600089530976040704009F0705808955523C7
:1009A60042F4503811F4E0FF04C03196691F791FF4
:1009B6006BF050E8572711F45F93CFC05F3F31F0DB
:1009C600660F000C57956795752F08955F93002065
:1009D6000AF0CEC0C7C050E8192E1522880F991FFD
:1009E6009527550F879550E8072E0522660F771F26
:1009F6007527550F67950895689401C0E8945F932D
:100A0600F2DF703818F07F3F08F4A7C056E1571B95
:100A1600AAF4519558300EF4593030F0EFEFFFEF4D
:100A26006FEF7FE777F91AC077275523B9F0EE0FF6
:100A3600FF1F661F771F5A95D1F710C077275830CA
:100A460028F0EF2FF62F672F5850F9CF552331F0A6
:100A560076956795F795E7955A95D1F700200AF4AC
:100A6600F0DE5F910895689401C0E8943097604085
:100A76007040B1F0002426F0772312F40094E1DEF2
:100A8600172E7EE1112032F07A95EE0FFF1F661FBA
:100A9600111CF9CFEF2FF62F612D5F938ADF5F913F
:100AA60008954F93AF01FD01DA01AB01BC01CA0104
:100AB600402D012C142E4F910895EA0FFB1F681F3D
:100AC6000895E095F0956095EF5FFF4F6F4F08959D
:100AD6005F9381DF903871F150E8152604C05F936B
:100AE6007ADF903839F1703821F1572F591B2BF1E5
:100AF60012F4D7DFFACF583118F0AA27BB27882778
:100B0600583028F0AB2FB82F88275850F9CF5523E7
:100B160029F08695B795A7955A95D9F7502D512561
:100B260072F0CBDF38F46795F795E795739513F474
:100B36001FC0B7DF3EDF5F910895D8F7FBCFEA1BF2
:100B4600FB0B680B51F010F40094BBDF662392F3A5
:100B5600EE0FFF1F661F7A95CBF7EE27FF27BF0123
:100B66005F910895EFEFFFEF6FE77FEF5F910895D5
:100B7600EFEFFFEF6FE77FE75F9108955F932BDF5E
:100B8600703859F3903849F301240894791F23F4F7
:100B960024F300203AF3ECCF0F921F932F933F9349
:100BA6004F93112722279927689FA0018F9F302DE9
:100BB600410D591F6B9F300D411D591F8E9F27D028
:100BC600BF9F25D06A9F23D0BE9F1DD0AF9F1BD04D
:100BD600AE9F110D291F391F491F591FE32FF42FEF
:100BE600652F522F4F913F912F911F910F906623A2
:100BF6002AF0550FEE1FFF1F661F02C073954BF2BA
:100C0600CEDE5F910895100D211D391F02C0200D03
:100C1600311D491F591F08955F93DDDE703821F499
:100C260011200AF49FCFA4CF903809F496CF01245F
:100C36000894970B1BF4D4F30020F3CF792F1F935E
:100C46002F933F934F931124112722273327A9016E
:100C560090E2AE17BF078607410730F0AE1BBF0B09
:100C6600860B410B089401C08894551F221F331F21
:100C7600111CAA1FBB1F881F441F9A9551F7F90123
:100C8600612D4F913F912F911F91662332F0550FA1
:100C9600EE1FFF1F661F7A954BF281DE5F91089566
:100CA60099239AF0772342F0971748F029F4AE1764
:100CB600BF07860720F031F0989488940895989499
:100CC600089408951894889408957723C2F797177F
:100CD60098F3A9F7EA17FB07680788F399F3ECCFAF
:00000001FF
