:0E0000000C9483000C9414010C9400000C94DA
:10000E0000000C9400000C9400000C9400000C9462
:10001E0000000C9400000C9400000C9400000C9452
:10002E0000000C9400000C9400000C9400000C9442
:10003E0000000C942C010C9400000C9400000C9405
:10004E0000000C9400000C9400000C9400000C9422
:10005E0000000C9400000C9400001027E8036400CC
:10006E000A00010000100001100001000000000055
:10007E000000000000003C000100C8001400320027
:10008E00000054005B000E00B4FFA0FFE4FF42002E
:10009E0063002900CAFFACFFCAFF2A0063004100BB
:1000AE00E6FFA0FFACFFFFFF5B005400E6FFBFFFC3
:1000BE009DFFD6FF360054003600D7FF9DFFBEFFD2
:1000CE001C0060004C00F2FFA5FFACFF01002D4E9E
:1000DE00414E00494E4600000C0003007A0001001C
:1000EE002C08880001002E088A00010030088C00C0
:1000FE0001003908DA000000F894EE27EFBBF1E0BA
:10010E00F5BFE5BF8DE0A2E0BB27ED938A95E9F739
:10011E0080E098E0A0E0B1E0ED930197E9F7E6EE1C
:10012E00F0E085919591009761F0A591B5910590BC
:10013E001590BF01F00105900D920197E1F7FB01BB
:10014E00F0CFE0E0EEBBEFEFEDBFE8E0EEBFC0E0DA
:10015E00D3E00C94450133244424ECEFF0E03E163A
:10016E004F060CF5E32DF42D63D268D2A0E0B0E07B
:10017E0080E090E42BD4DF01CB01E0E0F0E06CE70F
:10018E0073E462D2E32DF42D69D2EA0FFB1FFF93C5
:10019E00EF9369D2AF91BF91ED93FC93E1E0F0E064
:1001AE003E0E4F1EDACF2CC055246624E0E9F1E056
:1001BE005E166F062CF5E52DF62DE059F140F595FE
:1001CE00E79536D2A6E6B6E686E69FE3FFD336D2AD
:1001DE00DF01CB01E0E0F0E064E373E435D2E52D1E
:1001EE00F62D51D2EA0FFB1FFF93EF933CD2AF9146
:1001FE00BF91ED93FC93E1E0F0E05E0E6F1ED6CF63
:10020E00E0E0F0E00895D6D2AB81AA231AF440D2F2
:10021E00E8D201C03DD20C94B802EA93FA93EFB73C
:10022E00EA931C9B07C0E72DF82D31967E2E8F2E5C
:10023E00319706C0E72DF82D31977E2E8F2E3196F1
:10024E00E991EFBFF991E9911895AA93BA93EA93C0
:10025E00FA93EFB7EA93AEE1B8E0ED91FD913196E6
:10026E00FE93EE931AD20CF020D2E0E0E6BDE991B7
:10027E00EFBFF991E991B991A9911895E0E8E09352
:10028E006100E0E0E0936100E2E2E4B9E0E0E5B9AC
:10029E00E7B9E8B9E2ECEAB9E0E0EBB9E4BDE5E0D4
:1002AE00E5BDE0E0E6BDE7BDE8BDE1E0E0936E0050
:1002BE00E3E0E0936900E1E0EDBBECBBE0E0E0934E
:1002CE006800E093C000E8E0E093C100E6E0E09350
:1002DE00C200E0E0E093C500E9E1E093C400E3E88A
:1002EE00E0938000E2E0E0938100E0E0E09385009F
:1002FE00E0938400E0938700E0938600EFEFE093B5
:10030E008900EAEFE0938800E0E0E0938B00E09351
:10031E008A00E0936F0078944E982D9A5F98299AF0
:10032E001ADF42DFBAD10CF0C0D1A0911E08B091F5
:10033E001F08E6E01FD292D1BED1BE2ECF2EE72DE2
:10034E00F82DF595E7959FD1B6D1EB19FC09E09301
:10035E001C08F0931D08B8D16BD1A4E9B7E885E865
:10036E009CE334D3A0912008B091210880912208FB
:10037E0090912308DCD2E0932008F093210860933B
:10038E00220870932308E0912408F09125086091CB
:10039E002608709127089DD1A1D116D2C1D2E09323
:1003AE002808F093290860932A0870932B088CD1A3
:1003BE00A0912C08B0912D08F5D1FF93EF93E09109
:1003CE002008F09121086091220870912308A091D5
:1003DE002E08B0912F0882D1F9D2AF91BF917ED164
:1003EE00A6D27F936F93FF93EF93E0912808F0913D
:1003FE00290860912A0870912B08A0913008B091BD
:10040E0031086CD1E3D2AF91BF918F919F918FD272
:10041E00DF01CB01F8DE18D266277727A3E3B8E019
:10042E00662777274AD260D1E0913308F0913408DD
:10043E006091350870913608A7E3B8E005D2ED93C8
:10044E00FC9357D109F008F40CC0E0E0FFEF6FE722
:10045E0077E4E0933308F093340860933508709393
:10046E00360837D1AF3FEFEFBE0724F4A091320824
:10047E00A03009F00DC0E1E0E09332085F984E9A8B
:10048E0038D111F008F003C0F89441D178941EC011
:10049E0020D1129724F0A0913208A13009F016C095
:1004AE00E0E0E09332085F9A4E9823D111F008F005
:1004BE0004C0F8942CD1789409C0E0E0E0932408AD
:1004CE00E0932508E0932608E0932708FDD0A4E2E8
:1004DE00B8E0AED009D126CFFFCF6CD17B816A8137
:1004EE00F981E88177FB770F67FD7160972F9E5733
:1004FE0081F078F0983190F4AA27BB2788270894CA
:10050E008795B795A7959A95D1F7EA23FB2368238C
:10051E0005C0E8947727EE27FF2766276F77769535
:10052E0008F4606877F9A991B99189919991EA17C0
:10053E00FB076807790797FB08953CD1A881B9811D
:10054E008A819B81CADFE883F9836A837B8311F4F6
:10055E009FD007C0EEF79CD0A0E0B0E080E89FE30C
:10056E00DFD12496089526D124971A9310E0D5D082
:10057E00E3E8F9EF62E27EE329D2D4D0DEDFCDD01C
:10058E0023D1CED1CFD0D3D0B3D209F008F407C047
:10059E00D3D0A0E0B0E080E09FE3D3D011E0BDD097
:1005AE00E0E0F0E060E87EE3A3D209F008F403C0D7
:1005BE00B4D0BDD0C6D0103031F0BED012D1ED8344
:1005CE00FE836F837887B8D0A8D000D2E983FA83F0
:1005DE006B837C83BCD0A1EBB4EC86E292E4F6D1C3
:1005EE00DF01CB01EDE1F5EE6DE272E4EDD098D1D5
:1005FE00B3D0ACE4B3E584E091E499D18ED0E6D1EA
:10060E007F936F93FF93EF93A2D0A1E1BDEE8EED9A
:10061E009FE38DD1A1D0AEE5BBE788EA9FE387D1FA
:10062E00AF91BF918F919F911FD2188129960895F6
:10063E006F2F660F660B762F40D10895A3ECB5EFA2
:10064E0088E490E4C3D108950FD2E093F804F093B8
:10065E00F9046093FA047093FB040895A0E0B3E0EC
:10066E00EE0FFF1F0895A091F804B091F904809148
:10067E00FA049091FB0477DFA0E0B0E080E097E40D
:10068E00A5D1E4D00895ACEFB4E0EE0FFF1F0895AE
:10069E00E881F9816A817B810895A0911E08B0914D
:1006AE001F08A130EFE3BE070895E0E0E0931E08B7
:1006BE00E0931F080895AE0FBF1FED91FD916DD011
:1006CE00AD2DBE2D6FD00895E0911C08F0911D0840
:1006DE000895A0911C08B0911D0808958B2F880FC6
:1006EE00880B982F6ED00895ED93FD936D937C93A8
:1006FE000895A0913308B0913408809135089091F7
:10070E003608E0E0FFEF6FE777E4F2D10895EFEF00
:10071E00E0938900E09388000895AD81BE818F81BA
:10072E0098850895ED83FE836F837887F6CFE0E09A
:10073E00F0E060E07FE30895ED81FE816F817885C2
:10074E000895EED0ED83FE836F8378870895E98157
:10075E00FA816B817C810895A981BA818B819C81FC
:10076E0035D10895F09560957095E195FF4F6F4FD7
:10077E007F4F0895EE230E2EE8E01E2EFD0161F050
:10078E00011430F0EF2FF0E0E7FDFFEF011821F03C
:10079E00F595E7950A94E1F70895F595E795F595A2
:1007AE00E7950895FA9FF02DEB9FF00DEA9FE02D4F
:1007BE00F10D08959A938A93BA93AA930895689423
:1007CE0001C0E89401D07AD0182E862F612D192EF3
:1007DE00972F712D1B2EBF2FF12D1A2EAE2FE12D1F
:1007EE00089530976040704009F070580895552371
:1007FE0042F4503811F4E0FF04C03196691F791F9E
:10080E006BF050E8572711F45F93CFC05F3F31F084
:10081E00660F000C57956795752F08955F9300200E
:10082E000AF0CEC0C7C050E8192E1522880F991FA6
:10083E009527550F879550E8072E0522660F771FCF
:10084E007527550F67950895689401C0E8945F93D6
:10085E00F2DF703818F07F3F08F4A7C056E1571B3F
:10086E00AAF4519558300EF4593030F0EFEFFFEFF7
:10087E006FEF7FE777F91AC077275523B9F0EE0FA0
:10088E00FF1F661F771F5A95D1F710C07727583074
:10089E0028F0EF2FF62F672F5850F9CF552331F050
:1008AE0076956795F795E7955A95D1F700200AF456
:1008BE0059DF5F910895689401C0E89430976040C5
:1008CE007040B1F0002426F0772312F400944ADF32
:1008DE00172E7EE1112032F07A95EE0FFF1F661F64
:1008EE00111CF9CFEF2FF62F612D5F938ADF5F91E9
:1008FE0008954F93AF01FD01DA01AB01BC01CA01AE
:10090E00402D012C142E4F910895EA0FFB1F681FE6
:10091E000895E095F0956095EF5FFF4F6F4F089546
:10092E005F9381DF903871F150E8152604C05F9314
:10093E007ADF903839F1703821F1572F591B2BF18E
:10094E0012F4D7DFFACF583118F0AA27BB27882721
:10095E00583028F0AB2FB82F88275850F9CF552391
:10096E0029F08695B795A7955A95D9F7502D51250B
:10097E0072F0CBDF38F46795F795E795739513F41E
:10098E001FC0B7DF3EDF5F910895D8F7FBCFEA1B9C
:10099E00FB0B680B51F010F40094BBDF662392F34F
:1009AE00EE0FFF1F661F7A95CBF7EE27FF27BF01CD
:1009BE005F910895EFEFFFEF6FE77FEF5F9108957F
:1009CE00EFEFFFEF6FE77FE75F9108955F932BDF08
:1009DE00703859F3903849F301240894791F23F4A1
:1009EE0024F300203AF3ECCF0F921F932F933F93F3
:1009FE004F93112722279927689FA0018F9F302D93
:100A0E00410D591F6B9F300D411D591F8E9F27D0D1
:100A1E00BF9F25D06A9F23D0BE9F1DD0AF9F1BD0F6
:100A2E00AE9F110D291F391F491F591FE32FF42F98
:100A3E00652F522F4F913F912F911F910F9066234B
:100A4E002AF0550FEE1FFF1F661F02C073954BF263
:100A5E00CEDE5F910895100D211D391F02C0200DAD
:100A6E00311D491F591F08955F93DDDE703821F443
:100A7E0011200AF49FCFA4CF903809F496CF012409
:100A8E000894970B1BF4D4F30020F3CF792F1F9308
:100A9E002F933F934F931124112722273327A90118
:100AAE0090E2AE17BF078607410730F0AE1BBF0BB3
:100ABE00860B410B089401C08894551F221F331FCB
:100ACE00111CAA1FBB1F881F441F9A9551F7F901CD
:100ADE00612D4F913F912F911F91662332F0550F4B
:100AEE00EE1FFF1F661F7A954BF281DE5F91089510
:100AFE0099239AF0772342F0971748F029F4AE170E
:100B0E00BF07860720F031F0989488940895989442
:100B1E00089408951894889408957723C2F7971728
:100B2E0098F3A9F7EA17FB07680788F399F3ECCF58
:00000001FF
