:080000000C945C000C946701F4
:100008000C9400000C9400000C9400000C94000068
:100018000C9400000C9400000C9400000C94000058
:100028000C9400000C9400000C9400000C94000048
:100038000C9400000C9400000C947E010C940000B9
:100048000C948C020C9400000C9400000C9400009A
:100058000C9400000C9400000C9400000C94000018
:100068001027E80364000A000100001000011000D6
:1000780001000000000000000000030000003C0038
:10008800C800010001002D4E414E00494E460000B7
:100098000C0003007A0001003608860001004A08B7
:1000A800880001004E088A00010056088C000000F4
:1000B800F894EE27EFBBF1E0F5BFE5BF8DE0A2E0D5
:1000C800BB27ED938A95E9F780E098E0A0E0B1E0DE
:1000D800ED930197E9F7E8E9F0E0859195910097AC
:1000E80061F0A591B59105901590BF01F0010590BB
:1000F8000D920197E1F7FB01F0CFE0E0EEBBEFEFE7
:10010800EDBFE8E0EEBFC0E0D3E00C944203E3E3C8
:10011800E4B9E0E0E5B9E7B9E8B9E2ECEAB9E4E066
:10012800EBB90895E0E8E0936100E0E0E093610056
:100138000895E0E0E4BDE5E0E5BDE0E0E6BDE7BD4B
:10014800E8BDE1E0E0936E00E3E8E0938000E2E0E0
:10015800E0938100E0E0E0938500E0938400E09381
:100168008700E0938600EFEFE0938900EAEFE093E1
:1001780088004FD3E0936F000895E3E0E0936900AF
:10018800E1E0EDBBECBBE0E0E09368000895E2E05D
:10019800E093C000E8E0E093C100E6E0E093C2002D
:1001A800E0E0E093C500E0E1E093C400E8E9E09313
:1001B800C100E091C100E068E093C10008951A937E
:1001C8001A2FE091C000E072E1F37AC2E7D30A2F58
:1001D8004E815F8110E020E030E0E02FD901F0E0AF
:1001E800AE17BF0744F4F901E40FF51FE0811E279D
:1001F8002F5F3F4FF2CFE12FD8D3289608953324AD
:100208004424E0E0F1E03E164F0614F5E32DF42D0A
:1002180050D44BD504D3A0E0B0E080E090E4CED534
:10022800DF01CB01E0E0F0E060E873E4FED2E32D0B
:10023800F42D05D3EA0FFB1FFF93EF9305D3AF917E
:10024800BF91ED93FC93E1E0F0E03E0E4F1ED9CF55
:100258002DC055246624E0E9F1E05E166F0634F5FA
:10026800E52DF62DE059F140F595E79522D41DD5F9
:10027800A6E6B6E686E69FE3A1D5D1D2DF01CB019B
:10028800E0E0F0E064E373E4D0D2E52DF62DECD2A3
:10029800EA0FFB1FFF93EF93D7D2AF91BF91ED9376
:1002A800FC93E1E0F0E05E0E6F1ED5CFE0E0F0E0F9
:1002B800089572D4AB81AA231AF4DBD291D301C07A
:1002C800D8D20C94A603AA93BA93EA93FA93EFB7F9
:1002D800EA931C9B03C0CFD2319602C0CCD231978F
:1002E800FE93EE93E09AE991EFBFF991E991B99104
:1002F800A9911895C5D2D2D2D7D38E2EE0913008C5
:100308007E2EACE1D0D2D4D2E8E0B7D38E2EE091E5
:1003180051087E2EADE2C7D2D4D2E8E195D39E2E05
:10032800D0D2E0E191D3AE2ECCD2E8E08DD38E2EA0
:10033800E0913A087E2EACE2BDD1A92DBBD1AA2D01
:10034800B2D2ED2DFE2DEC59FF4FDE2EEF2EEB2D08
:10035800A1E0B0E055D3FE2FE0E0ED15FE0510F466
:10036800DD24EE24E0E0FFE3ED15FE0514F4DD24C2
:10037800EE24EB2DAD2DBE2D54D361D2ABD2E0933C
:100388003208F0933308609334087093350886D2A6
:10039800F595E79569D29ED2DF01CB01E09132084D
:1003A800F0913308609134087091350814D3E4E66D
:1003B800F0E060E070E0D0D3E0933A08F0933B08B7
:1003C80060933C0870933D0894D26FD4A4E9B7E8D1
:1003D80085E89CE3F3D4A0913E08B0913F08809152
:1003E800400890914108DFD39AD4E0933E08F093F7
:1003F8003F086093400870934108A0914208B0916B
:100408004308809144089091450873D2DFD2E09365
:100418004608F0934708609348087093490869D2E2
:10042800A0914A08B0914B0849D36DD37F936F933D
:10043800FF93EF93E0913E08F0913F0860914008E8
:1004480070914108A0914C08B0914D0837D35BD307
:10045800AF91BF918F919F91AFD27F936F93FF938D
:10046800EF93E0914608F091470860914808709131
:100478004908A0914E08B0914F0820D344D3AF91BA
:10048800BF918F919F919DD214DFDF01CB01EAE0EC
:10049800F0E060E070E03CD335D23DD228F0EFEFD9
:1004A800FFEF60E070E02ED2A0913D08AA236AF425
:1004B800E0915008E03029F4E1E0E09350085F98BB
:1004C8004E9A29D208F430D219C0FBD17CD3B4F4A7
:1004D800A0915008A13029F4E0E0E09350085F9A19
:1004E8004E9819D210F420D209C093D1E093420853
:1004F800E0934308E0934408E0934508FAD1E09379
:100508004208F09343086093440870934508A8C0D4
:10051800B7D12597E8E8E883E1E0E983EA83E0E0FA
:10052800EB83EC833DD200E010E0E091C6002E2F73
:10053800E0915508F0E0309751F4283821F4E09123
:100548005508EF5F01C0E0E0E093550887C0E1304F
:10055800A0E0FA0721F420932508F0D17FC0E2300B
:10056800A0E0FA0721F420932608E8D177C0E33009
:10057800A0E0FA07A1F4E8D1AE1780F4A7E2B8E04A
:10058800E0912E08EF5FE0932E08E150F0E0EA0FCB
:10059800FB1F2083D9D1EA1709F4D0D15FC0E4301A
:1005A800A0E0FA0709F05AC020932D08E4E2F8E029
:1005B800FA93EA93A0912E08AD5F08DE3E2FE091F2
:1005C8002D08E31709F042C0E0912508F0E0E23079
:1005D800A0E0FA07D9F5F0912708E0E0DF01E09103
:1005E8002808F0E0EA2BFB2BE0934A08F0934B082D
:1005F800B0912908A0E0E0912A08F0E0EA2BFB2B53
:10060800E0934C08F0934D08B0912B08A0E0E091DE
:100618002C08F0E0EA2BFB2BE0934E08F0934F08F0
:10062800FE013496FA93EA93A5E0D0DDE88700E06E
:1006380010E00530E0E01E074CF4DE011496A00F30
:10064800B11FAC91BCDD0F5F1F4FF3CFE0E0E0932B
:100658005508E0932E08E1E0E0932F08A8D12996E9
:10066800E991EFBFF991E991B991A991999189918E
:1006780079916991F99019900990189553DD47DDA2
:1006880058DD7BDD84DD78944E982D985F98299A03
:10069800B6DDDFDD5F9A4E98E4EFE0938B00E093E0
:1006A8008A00E0912F08E03019F0E0E0E0932F088D
:1006B800F8CFFFCF1A931A2FE091C000E072E1F350
:1006C8001093C6001991089567D27B816A81F981D8
:1006D800E88177FB770F67FD7160972F9E5781F050
:1006E80078F0983190F4AA27BB2788270894879533
:1006F800B795A7959A95D1F7EA23FB23682305C0F8
:10070800E8947727EE27FF2766276F77769508F412
:10071800606877F9A991B99189919991EA17FB07CE
:100728006807790797FB089537D22CD2CDDF2FD2EF
:1007380011F49FD007C0EEF79CD0A0E0B0E080E8AD
:100748009FE3E6D22496089527D224971A9310E0BF
:1007580000D1E3E8F9EF62E27EE330D3FFD0E4DFD3
:10076800F8D024D2D5D2FAD0FED0BAD309F008F402
:1007780007C0FED0A0E0B0E080E09FE3FED011E02B
:10078800E8D0E0E0F0E060E87EE3AAD309F008F4FE
:1007980003C0DFD0E8D0F1D0103031F0E9D019D261
:1007A800ED83FE836F837887E3D0D3D007D3E983C3
:1007B800FA836B837C83E7D0A1EBB4EC86E292E406
:1007C800FDD2DF01CB01EDE1F5EE6DE272E4EED191
:1007D8009FD2DED0ACE4B3E584E091E4A0D2B9D0F6
:1007E800EDD27F936F93FF93EF93CDD0A1E1BDEE50
:1007F8008EED9FE394D2CCD0AEE5BBE788EA9FE3C9
:100808008ED2AF91BF918F919F9126D3188129964F
:100818000895E0E0E0938B00E0938A000895A3EC4C
:10082800B5EF88E490E4CAD2089516D3E0930005A2
:10083800F093010560930205709303050895A0E005
:10084800B3E0EE0FFF1F0895A0910005B0910105D8
:10085800809102059091030577DFA0E0B0E080E089
:1008680097E4ACD2EBD10895A4E0B5E0EE0FFF1FFA
:10087800089583D10895A0E3B8E0ED91FD9108951E
:100888000A921A92FA926A937A938A939A93AA93FB
:10089800BA93EA93FA93EFB7EA930895E091300890
:1008A800F0913108089506DFA82D04DFA72D02CFA7
:1008B800A0915108B0915208809153089091540822
:1008C8000895A0913A08B0913B0880913C08909116
:1008D8003D080895AE0FBF1FED91FD91A091360818
:1008E800B09137088091380890913908E2D00BD13F
:1008F8000895E0913A08F0913B0860913C087091A6
:100908003D080895E0935108F09352086093530806
:10091800709354080895CCDFA030E0E0BE07E1E012
:100928008E07E0E09E070895C3DFE8E0A6D0E093D5
:100938008900E0915108E09388000895E0915508F6
:10094800EF5FE09355080895E0912608A0912E08DE
:100958000895AD81BE818F8198850895ED83FE83CA
:100968006F837887F6CFE0E0F0E060E07FE30895FA
:10097800ED81FE816F8178850895CAD1ED83FE836C
:100988006F8378870895E981FA816B817C81089566
:10099800A981BA818B819C8111D208955A934A9377
:1009A8003A932A931A930A9308955D814C813B8167
:1009B8002A81198108810895EA0FFB1F681F791F92
:1009C8000895AE0FBF1F861F971F0895EA1BFB0BE4
:1009D800680B790B0895AE1BBF0B860B970B089518
:1009E800F09560957095E195FF4F6F4F7F4F089593
:1009F800B09580959095A195BF4F8F4F9F4F0895C3
:100A0800EE230E2EE8E01E2EFD0151F0011420F019
:100A1800FE2FE0E0011821F0EE0FFF1F0A94E1F726
:100A28000895EE230E2EE8E01E2EFD0161F001145C
:100A380030F0EF2FF0E0E7FDFFEF011821F0F5951A
:100A4800E7950A94E1F70895EE230E2EE8E01E2EAE
:100A5800FD01BC0189F0011448F0EF2FF62F672F34
:100A680070E067FD7FEF0118B1F7089575956795F8
:100A7800F795E7950A94D1F70895EE230E2EE8E04E
:100A88001E2EFD01BC0179F0011438F0EF2FF62F6E
:100A9800672F70E00118C1F7089576956795F79567
:100AA800E7950A94D1F70895EF2FFF27E7FDFFEFA9
:100AB80008956F2F660F660B762F08958B2F880F7A
:100AC800880B982F08957A9F702D6B9F700DF89F53
:100AD800700DE99F700D6A9F602D710DFB9F600D71
:100AE800711DE89F600D711D8827FA9FF02D610D1B
:100AF800781FEB9FF00D611D781FEA9FE02DF10D27
:100B0800681F781F08952DD0DEDF0EF469DF089581
:100B18003F934F935F9300241124A00130E2AA0F62
:100B2800BB1F881F991F001C111C441F551F0E1A3C
:100B38001F0A460B570B28F40E0E1F1E461F571F81
:100B480001C0A1603A9559F7FD01BC01D001CA0165
:100B58005F914F913F91089504D0DADF0EF440DFA2
:100B68000895E89477FF02C03BDF689497FF04C0BC
:100B78003FDF00F8039400FA0895E881F9816A815B
:100B88007B810895A881B9818A819B810895E88332
:100B9800F9836A837B8308959A938A93BA93AA9375
:100BA8000895689401C0E89401D080D0182E862F4B
:100BB800612D192E972F712D1B2EBF2FF12D1A2E57
:100BC800AE2FE12D089500240A160B060806090623
:100BD800089530976040704009F070580895552383
:100BE80042F4503811F4E0FF04C03196691F791FB0
:100BF8006BF050E8572711F45F93CFC05F3F31F097
:100C0800660F000C57956795752F08955F93002020
:100C18000AF0CEC0C7C050E8192E1522880F991FB8
:100C28009527550F879550E8072E0522660F771FE1
:100C38007527550F67950895689401C0E8945F93E8
:100C4800F2DF703818F07F3F08F4A7C056E1571B51
:100C5800AAF4519558300EF4593030F0EFEFFFEF09
:100C68006FEF7FE777F91AC077275523B9F0EE0FB2
:100C7800FF1F661F771F5A95D1F710C07727583086
:100C880028F0EF2FF62F672F5850F9CF552331F062
:100C980076956795F795E7955A95D1F700200AF468
:100CA8009FDE5F910895689401C0E8943097604092
:100CB8007040B1F0002426F0772312F4009490DEFF
:100CC800172E7EE1112032F07A95EE0FFF1F661F76
:100CD800111CF9CFEF2FF62F612D5F938ADF5F91FB
:100CE80008954F93AF01FD01DA01AB01BC01CA01C0
:100CF800402D012C142E4F910895EA0FFB1F681FF9
:100D08000895E095F0956095EF5FFF4F6F4F089558
:100D18005F9381DF903871F150E8152604C05F9326
:100D28007ADF903839F1703821F1572F591B2BF1A0
:100D380012F4D7DFFACF583118F0AA27BB27882733
:100D4800583028F0AB2FB82F88275850F9CF5523A3
:100D580029F08695B795A7955A95D9F7502D51251D
:100D680072F0CBDF38F46795F795E795739513F430
:100D78001FC0B7DF3EDF5F910895D8F7FBCFEA1BAE
:100D8800FB0B680B51F010F40094BBDF662392F361
:100D9800EE0FFF1F661F7A95CBF7EE27FF27BF01DF
:100DA8005F910895EFEFFFEF6FE77FEF5F91089591
:100DB800EFEFFFEF6FE77FE75F9108955F932BDF1A
:100DC800703859F3903849F301240894791F23F4B3
:100DD80024F300203AF3ECCF0F921F932F933F9305
:100DE8004F93112722279927689FA0018F9F302DA5
:100DF800410D591F6B9F300D411D591F8E9F27D0E4
:100E0800BF9F25D06A9F23D0BE9F1DD0AF9F1BD008
:100E1800AE9F110D291F391F491F591FE32FF42FAA
:100E2800652F522F4F913F912F911F910F9066235D
:100E38002AF0550FEE1FFF1F661F02C073954BF275
:100E4800CEDE5F910895100D211D391F02C0200DBF
:100E5800311D491F591F08955F93DDDE703821F455
:100E680011200AF49FCFA4CF903809F496CF01241B
:100E78000894970B1BF4D4F30020F3CF792F1F931A
:100E88002F933F934F931124112722273327A9012A
:100E980090E2AE17BF078607410730F0AE1BBF0BC5
:100EA800860B410B089401C08894551F221F331FDD
:100EB800111CAA1FBB1F881F441F9A9551F7F901DF
:100EC800612D4F913F912F911F91662332F0550F5D
:100ED800EE1FFF1F661F7A954BF281DE5F91089522
:100EE80099239AF0772342F0971748F029F4AE1720
:100EF800BF07860720F031F0989488940895989455
:100F0800089408951894889408957723C2F797173A
:100F180098F3A9F7EA17FB07680788F399F3ECCF6A
:00000001FF
